S0110000426C696E6B414C65642E73726563CD
S11300000C9434000C943E000C943E000C943E007E
S11300100C943E000C943E000C943E000C943E0064
S11300200C943E000C943E000C943E000C943E0054
S11300300C943E000C943E000C943E000C943E0044
S11300400C943E000C943E000C943E000C943E0034
S11300500C943E000C943E000C943E000C943E0024
S11300600C943E000C943E0011241FBECFEFD8E048
S1130070DEBFCDBF0E9440000C946C000C940000C5
S113008082E084B91AB88CE08BB982E04A990FC037
S113009085B9E7EAF1E63197F1F700C0000015B839
S11300A0E7EAF1E63197F1F700C00000EFCF85B938
S11300B0FFE926E831E0F15020403040E1F700C08C
S11300C0000015B89FE9E6E8F1E09150E040F04007
S10F00D0E1F700C00000DACFF894FFCF85
S9030000FC
